:02000002F0000C
:10500000486300203D550F0029550F00F5540F004F
:1050100029550F0029550F0029550F0000000000E9
:1050200000000000000000000000000079960F0062
:1050300029550F000000000029550F0029550F00C9
:1050400029550F0029550F0029550F0029550F002C
:1050500029550F0029550F0029550F0029550F001C
:1050600029550F0029550F0029550F0029550F000C
:1050700029550F0029550F0029550F0029550F00FC
:10508000E5780F0029550F0029550F0029550F000D
:1050900029550F0029550F00D5950F0029550F00F0
:1050A00029550F0029550F0029550F0029550F00CC
:1050B00029550F0029550F000000000000000000D6
:1050C00029550F0029550F0029550F0029550F00AC
:1050D0001D750F0029550F0029550F0029550F0088
:1050E00029550F0029550F0029550F000000000019
:1050F0000000000029550F000000000029550F0096
:105100007047000010B51C4BD3F8F030DB071CD5FE
:1051100044F20103984227D009D8012811D041F266
:10512000010398421ED0154804F09EFD0CE044F2A5
:1051300002039842F7D1D2E90021114804F094FD0E
:1051400002E0104804F0A2FD00BEBFF34F8F0A49F1
:105150000D4BCA6802F4E0621343CB60BFF34F8F7C
:1051600000BFFDE70948EDE793680948D2E900214F
:1051700004F07AFDE8E700BF00ED00E064B40F0042
:105180002AB40F00EAB30F000400FA0507B40F00B9
:105190003EB40F001FB50021039001AA44F20100A4
:1051A000CDE90111FFF7AEFF10B51248124C04F023
:1051B0006DFD124804F06AFD02F05EFB4FF4805171
:1051C000002002F0C3F86322214600F0A7F80C4843
:1051D000C0F57E2102F0BAF82146642200F09EF864
:1051E000084802F00DFC6722214600F097F80020E5
:1051F00010BD00BF7CB40F0097B40F0082B40F0045
:1052000000500F0001510F00BFF34F8F0549064BAF
:10521000CA6802F4E0621343CB60BFF34F8F00BF54
:10522000FDE700BF00ED00E00400FA052DE9F041C4
:105230002B4B04469D6A00284ED08169294804F012
:1052400013FD2168284804F00FFD6168274804F029
:105250000BFDA168264804F007FDE168254804F02D
:1052600003FD2169244804F0FFFC6169234804F030
:10527000FBFCE169224804F0F7FC194BDB6A990753
:1052800002D5204804F002FD1F4FDFF88C80002477
:10529000012606FA04F32B4205D057F8241011B169
:1052A000404604F0E1FC01341A2CF2D12A0604D560
:1052B0000B4B1648596B04F0D7FC15F4004F084C03
:1052C00003D0A16B124804F0CFFCD4F8F030DB0718
:1052D00000D500BEFFF798FF0E4804F0D7FCCCE7DE
:1052E00000ED00E0E0B40F00FCB40F000CB50F00BF
:1052F0001CB50F002CB50F003CB50F004CB50F00CE
:105300005CB50F00A2B50F0028BE0F00DFB50F007F
:1053100006B60F006CB50F0056B90F0038B5C0F3D4
:105320000B03002B7ED0404BD3F8F030DB071AD5AF
:1053300013281AD93D4B984227D20E3B984201D8E8
:105340003B4B0CE03B4B03440B2B07D8DFE803F04F
:10535000622A2C2E30323436383A3C3E364B3748AF
:1053600004F082FC00BEFFF74FFF0238112853D82B
:10537000DFE800F0092E30323436383A3C3E404205
:105380004446484A4C4E2E4BE9E72E4B984245D0B6
:105390000133984244D02C4D2C4B254CA84218BFC9
:1053A0002346DCE72A4BDAE72A4BD8E72A4BD6E735
:1053B0002A4BD4E72A4BD2E72A4BD0E72A4BCEE739
:1053C0002A4BCCE72A4BCAE72A4BC8E72A4BC6E749
:1053D0002A4BC4E72A4BC2E72A4BC0E72A4BBEE759
:1053E0002A4BBCE72A4BBAE72A4BB8E72A4BB6E769
:1053F0002A4BB4E72A4BB2E72A4BB0E72A4BAEE779
:105400002A4BACE72A4BAAE72A4BA8E72A4BA6E788
:105410002A4BA4E72A4BA2E72A4BA0E72A4B9EE798
:105420002A4B9CE738BD00BF00ED00E00D00AD0B3E
:1054300033B60F00FFFF52F426B60F0043B90F003A
:10544000AEB70F000100AE0B0000AE0B37B70F0078
:1054500041B60F0053B60F006CB60F0085B60F00B3
:105460009EB60F00B8B60F00CBB60F00E0B60F0027
:10547000F0B60F0008B70F0018B70F00CFB70F0036
:10548000E2B70F00F3B70F0007B80F001FB80F0007
:1054900037B80F004FB80F0068B80F0080B80F0082
:1054A00097B80F00ABB80F00BDB80F00CCB80F0015
:1054B000E0B80F00F7B80F0006B90F001BB90F00D6
:1054C0002FB90F0090B70F0056B70F0073B70F003A
:1054D00008B503460548D0F8F000C00703D50448D6
:1054E00004F0C2FB00BEFFF78FFE00BF00ED00E03E
:1054F0005BB90F001EF0040F1CBFEFF309800AE038
:10550000EFF308800549064A884201D8904202D844
:105510008D464FF00000034B184700004863002001
:10552000485300202D520F00024903482922FFF75B
:10553000CFBF00BF90BE0F009DBE0F0008B50F4B40
:105540000F48DA1C121AC11E22F00302994288BFCA
:1055500000220C4904F070FA0B4B0C48DA1C121AAA
:10556000C11E22F00302994288BF0022002104F0EC
:10557000FDFA04F0D7F8FFF717FE00BF402B00201C
:10558000E82A00209CD20F0048530020402B002026
:105590004FF0FF30704707B501228DF807000DF17D
:1055A0000701002004F02EFA9DF8070003B05DF813
:1055B00004FB0020704710B561B1B2FBF3F403FBAC
:1055C0001424A4B244B9C0E9001484608281C38168
:1055D000204610BD0E20FCE70920FAE782B050E813
:1055E000022FC188B2EB324F4FF0000317BF92B2C7
:1055F00041EA014142EA014104E04268B2EB324F24
:1056000008BF012340E80212002AE8D18DF80730D4
:105610009DF80730002B0CBF1120002002B070470E
:1056200037B550E8013F9DB2C48925448489A5421D
:1056300028BF2D1B0489A54202BFBFF32F8F002274
:1056400007E0C5EA030540E80154002CE9D14FF01A
:1056500001028DF803200193019A0A609DF803105E
:1056600001F0FF0321B1006810FA82F003B030BDF1
:105670001846FBE70A884B889A4209D150E8012F67
:10568000C2EA024240E80123002BF7D10120704713
:105690000020704737B550E8023F1FFAA3F5C488D1
:1056A000A54202BFBFF32F8F00220DE0C48925441D
:1056B0008489A54228BF2D1BC3EA054540E8025452
:1056C000002CE8D14FF001028DF803200193019ADC
:1056D0000A609DF8031001F0FF0321B1006800EBA0
:1056E000124003B030BD1846FBE70A884B889A4247
:1056F00009D150E8022FC2EA224240E80223002BDF
:10570000F7D1012070470020704710B5034653E8D9
:10571000000F40EA010243E8002494F0000FF6D1A4
:1057200010BD10B5034653E8002F02EA010043E81C
:10573000000494F0000FF6D110BD0121FFF7E5BF82
:105740000021FFF7EEBF10B590B1D0E90123016849
:105750009B1ADBB20A60013BDBB2FF2B026802D16D
:105760000020107110BD11684C1C14600B70F2E722
:105770000E20F7E737B5044600250DF107008DF838
:10578000075003F083FF2268616813688B4210D9C9
:10579000591E1160216813F8010C258AE368A2687C
:1057A0000C68121B0C79D2B2944238BF0A7105FB07
:1057B00000359DF8070003F08DFF284603B030BD8B
:1057C00037B5054600230DF107000C468DF807306C
:1057D00003F05CFF2A681368591C1160EA68A41A78
:1057E0002A8AB4FBF2F41C709DF8070003F072FFE4
:1057F00003B030BD008800F0010070476CDF7047D7
:105800006DDF704772DF704773DF704774DF70477A
:1058100075DF704776DF70477ADF70477CDF70474F
:105820007DDF70477FDF704786DF70478FDF70470F
:1058300090DF7047A8DF7047AADF7047ADDF704781
:10584000AEDF7047B0DF7047B1DF7047B5DF70473C
:1058500062DF704766DF704713DF7047014601481B
:10586000FFF7AEBF50D20F0070B518228CB00021E8
:105870000DEB020004F07AF92823089316231F4C3D
:10588000ADF806300023CDF80E30CDF81230ADF86B
:10589000163002230926062223702371592301257D
:1058A000A27063710322FE230DF10601A0198DF889
:1058B00018508DF82D500294ADF80C606570E270B0
:1058C000A371FFF7ADFFB8B9BDF8063026725A19BB
:1058D000E271BDF80C200A4C134402A906AA204626
:1058E000ADF80C30FFF78EFF30B92078FFF78EFF50
:1058F00020782946FFF788FF0CB070BD402B0020B0
:10590000F82A0020F0B50388232B8BB0044635D845
:105910000F2B04D8012B00F006810BB0F0BD103B1B
:10592000132BFAD801A252F823F000BFAD590F0093
:10593000D7590F001B590F00B15A0F00155C0F000B
:105940001B590F001B590F001B590F001B590F004B
:105950001B590F00235C0F001B590F001B590F0030
:105960001B590F001B590F00DB5A0F001B590F006A
:10597000035B0F001B590F00975A0F00503B9AB260
:10598000062ACAD8062BC8D801A252F823F000BFB5
:10599000035A0F00335B0F00235C0F001B590F00ED
:1059A0001B590F005B5A0F00135B0F00A04D83883B
:1059B0002B80A04B1B680BB1012098479E4928887B
:1059C000FFF726FF01460028A7D09C480BB0BDE892
:1059D000F04004F049B9964B4FF6FF721A80984B8D
:1059E0001B685A0704D4FFF73FFF08B1FFF7D2FB4B
:1059F000904B1B68002B90D002200BB0BDE8F0400C
:105A00001847904EE288B3889A4286D18E48FFF7B5
:105A1000B1FE0546002880D0228A04F1120104F06C
:105A20000BF81822002104A804F0A0F808238DF830
:105A30001030864B0693864B0596CDE9073504A8B2
:105A4000238AADF8243000F003FD00283FF465AF51
:105A50007D482946FFF7B4FE5FE7E188F62918D8AC
:105A6000CB1E9B070DD0CB1F9BB2013B5A4202F0CD
:105A7000030203F0030301F1FF3158BF5342C91A77
:105A800089B26B4B1888FFF7E1FE00283FF445AF61
:105A900032E0F721F5E70022808804A9CDE904224D
:105AA000FFF7C6FE00283FF438AFFFF773FB34E77B
:105AB0005F4C02230493208802AB04AA42F605211E
:105AC0000593FFF7BBFE08B1FFF764FB00232088B6
:105AD0001A468521FFF7A6FEE4E7554B00F10801C1
:105AE0001888FFF795FE044600283FF416AF0146DC
:105AF000584804F0B9F820460BB0BDE8F040FFF775
:105B000049BB002304A98088ADF81030FFF78EFE52
:105B1000C8E7A379002B7FF400AF454B1321188809
:105B2000FFF778FEB1E7424B00211888FFF792FE9D
:105B3000ABE7A379002B3FF4F0AE022B7FF4EDAE80
:105B4000404D2189AA8991427FF4E7AEA27B012AC8
:105B50007FF4E3AE4FF480320592228A344EADF8E2
:105B60001820628AADF81A2004F11402079201AFDE
:105B7000298A3088049302AA02930397FFF75EFEF6
:105B800060B93846FFF736FE40B940F2FD13308861
:105B9000ADF8143004A9FFF755FEBEE6002304A9B2
:105BA0003088ADF81430FFF74DFE014600287FF431
:105BB000B4AE182204A803F0D9FF237D234A8DF840
:105BC0001030022B059506921DD0062B10D0012B0C
:105BD00010D1214B1A88214B1A80637DD4F81620EE
:105BE0000893012B099205D11D4800F03BFE01E00E
:105BF000637D089304A800F02BFC014600283FF4C5
:105C00008CAE1848E2E6144AB4F815301380134AF3
:105C10001380EFE700231A4619468088FFF704FE39
:105C200033E70023A0881A461946FFF70DFE2CE73C
:105C3000FA2A0020B03B002076BF0F00B8BE0F004C
:105C4000CC3B0020B83B002050D20F00155D0F0068
:105C50005D580F00E8BE0F00B63B0020B43B0020AB
:105C60003CD20F001FBF0F0038B515490B68024624
:105C700013F0010022D0134882421ED0124A10882D
:105C80004FF6FF72904213D043F004030B601321D0
:105C9000FFF7C0FD90B90D4DC82445F001054FF444
:105CA0007A40A847013CFAD1BDE8384003F03ABC3D
:105CB000074B1878FFF7AAFDF6E7002038BD00BFB4
:105CC000CC3B00203CD20F00FA2A002070BF0F000E
:105CD000F82A00207FB50023CDF80B308DF80F3067
:105CE0000A4BADF806109B89ADF8083001238DF8FA
:105CF0000A300DF10603CDE90430054B02A91888DE
:105D0000FFF79EFD07B05DF804FB00BFB83B002025
:105D1000FA2A0020F0B5044687B000210D2202A81F
:105D2000019103F023FF2378082B0BD1394A3A491C
:105D300013880988013B9BB21380D9B1D3B90323DF
:105D400011802370627823788DF805306021012A54
:105D50008DF804108DF806200ED00B2A12D100F019
:105D600083F98DF80700002000F078F9042101A8DC
:105D7000FFF7B0FF07B0F0BD062B05D0082B29D0E8
:105D8000032B27D00321F2E7E1688DF80710D4E94F
:105D90000123080A8DF80800080C090E8DF80A1076
:105DA000110A8DF80B208DF80C10110C120E8DF8C5
:105DB0000E201A0A8DF80F308DF810201A0C1B0EC9
:105DC0008DF80D108DF809008DF811208DF8123026
:105DD0000F21CCE7D4E90123C3F30741D7B2C2F3C3
:105DE0000726C2F30745DCB2C3F30720120E1B0ED1
:105DF0008DF80D108DF807708DF808608DF809503A
:105E00008DF80A208DF80B408DF80C008DF80E30BF
:105E10000B21ACE7B43B0020B63B00202DE9F0415C
:105E20003C4B94B005464FF6FF721A8001204FF6A6
:105E300059632A4602A98DF80A00ADF80830FFF729
:105E4000F9FC0446002861D1334B04AA03F1100782
:105E5000164618685968144603C40833BB422246E4
:105E6000F7D1A91C3046FFF7F3FC044600284DD1BA
:105E700001461C220DA803F079FE9DF834300C94E5
:105E800043F004038DF834300223ADF80C30AB78C6
:105E90008DF80E3003238DF80630F423CDE90A4443
:105EA000ADF82C302B464FF4885833F8040BADF87E
:105EB000048003AF01AE08AA0DA908970996FFF761
:105EC000BBFC044610BB01461C220DA803F04EFE8D
:105ED00018238DF834300123ADF80C30AB788DF8F1
:105EE0000E3013238DF806301723CDE90A44ADF8A0
:105EF0002C302B4608AA33F80C0B0C940DA9CDE9D5
:105F00000876ADF80480FFF797FC0446204614B0ED
:105F1000BDE8F081FA2A00207EBF0F0030B5314C79
:105F2000236813F0010585B059D12F4B18602F4815
:105F3000FFF709FC029500F0B2F8002850D12C4878
:105F4000FFF78AFC00284BD103F0AEFA002847D1B6
:105F500002A803F06BF9002842D102A9012003F046
:105F60006FF900283CD102A803F0FAF9002837D1D4
:105F700000F0CAFA30B11F4800F0B6FA236843F0C7
:105F800002032360112302A88DF80430FFF738FCC8
:105F900030BB9DF8093002A801338DF80930FFF7B6
:105FA0002DFCE8B923689B074BBF124912498A6947
:105FB0000C2248BF043192B201A8FFF72FFC78B938
:105FC0000E48FFF729FC58B90D48FFF727FF38B9ED
:105FD000FFF74AFC20B9236843F001032360002047
:105FE00005B030BDCC3B0020B03B002050D20F00AC
:105FF00000500F00D03B002055BF0F0076BF0F00B0
:10600000B83B002043690BB1C068184770470000D7
:106010000449054B0022904218BF1946034802F07C
:1060200065B900BF24CA0F0050CA0F002C2B0020F6
:1060300007B5009313460A460146034802F05AF991
:1060400003B05DF804FB00BF2C2B002013460A466A
:106050000146014802F055B92C2B0020014B187065
:106060000B207047EC3B0020024B002218781A707E
:10607000704700BFEC3B002018DF704730B585B09B
:10608000054610220C466846002103F06FFDA40867
:10609000684601950294FFF7EFFF05B030BD1FB5CC
:1060A0000023CDE901330393684602230093FFF7F1
:1060B000E3FF05B05DF804FB4FF000534FF480524E
:1060C0001A60002070470000014B06201B6818472B
:1060D000F03B00200A2803D90B38C0B2FFF7BEBF3F
:1060E0007047000010B5044686B0002002F010F999
:1060F000014660B118211A4A204602F063FE0146AB
:1061000018B3184806B0BDE8104003F0ADBD182222
:10611000684603F02BFD0423134A8DF80030134B1F
:10612000116D1B68994212D1114B186801F066F885
:106130008DF80100FFF7CEFFD4E901138DF80100BF
:10614000684698470B4800F0FBFA06B010BD0123E3
:106150008DF801306846D4E901139847F5E700BF90
:10616000E5600F0041C10F00FC420020F43B00201D
:10617000F83B0020C9600F00F0B5044687B0162236
:1061800000210DF1020003F0F1FC23788DF80030BE
:1061900001220C2B8DF8012000F23B819A4012F471
:1061A000AD7F15D1022B06D00C2B40F032819A4BDB
:1061B00007201B689847D4E90113684698479DF863
:1061C0000130012B00F02381934B05201B681DE15A
:1061D000062B924D0ED0012B1BD1237C2B70012B53
:1061E00048D0022B00F083808D4803F04FFD002340
:1061F0002B70C0E0237C2B70012B6FD0022BF3D1CE
:10620000884B9A6C1B6D01934FF480530292039359
:10621000D1E72A78012A17D0022AE5D1013B072BC2
:10622000C9D801A252F823F0EF620F00B7610F0046
:10623000D7630F00E1630F00B7610F0001620F0029
:10624000B7610F007B630F00013B072BB3D801A29E
:1062500052F823F075620F00B7610F00E3620F0080
:10626000B3620F00B7610F00DD620F00B7610F006E
:106270008D620F00684B03201B689847606900F02F
:1062800067FDFFF727FF8DF8010094E7A18A2069D9
:1062900000F076FDFFF71EFF624B8DF80100DA6B10
:1062A0001B6C0293E3680192002B84D0206998470D
:1062B00081E75D495D4800F0B5FDFFF70BFF012860
:1062C0008DF801007FF477AF002000F039FA002844
:1062D0003FF471AF0A238DF801306CE74FF400737F
:1062E0000393504BDA6B1B6C0192029363E700F04F
:1062F0006BFD20B94E4803F0C9FC0823EBE7616948
:1063000021B94C4803F0C2FC0323E4E7C1F30B03BB
:1063100043B1444B444A5B6D12680B44934201D035
:106320004548EFE7B1F5805F04D9444803F0AEFC7F
:106330000423D0E73B4A3C4B506D1B680D189D422F
:1063400004D902463E4803F08FFCD6E7D36C936431
:10635000106510635164354B61691B6801F6FF716C
:106360000022090B1844FFF771FE00283FF423AF09
:10637000344803F08BFC0523ADE700F025FD002831
:10638000BBD0284DA18AD5E914329B1A6A6C0B4404
:10639000934201D92C48B5E7244B2F6B1B68206929
:1063A00005F148021F4401F0F7FBE368A28A216966
:1063B00006463846FFF73CFE08B1E36876E7A28A56
:1063C0002B6B029613442B63A38A2A6DAE6413448D
:1063D0002B650193EFE6134B9A6C02921B6DF8E765
:1063E000104BD3E91402596C821A8A4203D0174821
:1063F00003F03AFC81E79A6C586500212046596405
:10640000DA64FFF76FFE044B1B680420984707B05F
:10641000F0BD02235FE700BFF03B0020FC2A002014
:10642000CCC20F00FC420020F43B0020F83B0020CF
:106430006CC10F00A2C10F00BCC10F00DEC10F0074
:1064400003C20F0076C20F008EC20F00A6C20F005B
:1064500083681BB1024A182102F0B4BC07207047C0
:1064600079610F0038B50546C0B10120FFF7D0FDB6
:10647000044648B900F05EFC00F0A6FC30B9084BB9
:1064800000201D60FFF7EAFD204638BD054906489B
:1064900000F0C8FC0128F2D00324F5E70724F3E755
:1064A000F03B0020F43B0020F83B002029DF704740
:1064B00038B50C4D0446D5F8643378B101330FD1AB
:1064C00000221821043001F067FB2060214605F509
:1064D00059700722BDE83840FFF7E8BF0E2038BDED
:1064E0000820FCE700F00F0050B1064B03F11C023E
:1064F00053F8041B40F8041B9342F9D10020704765
:106500000E20704764F30F0010B5064C00221821CE
:10651000204601F041FB54F8043C1B1A58425841F4
:1065200010BD00BF68F30F0010B50A4CD4F8243337
:10653000D4F864231340013309D04FF47F2001F0D5
:1065400013FFC92221464FF47F2001F03BFF0020BA
:1065500010BD00BFFC420020F8B514464FF4607235
:1065600005460F461E4603F04FFB20B90CB900202C
:10657000F8BDA047FBE7002201212846FFF766FD92
:1065800020B10B4803F082FB0320F1E74FF4607267
:106590003946304603F050FA23464FF460723146D4
:1065A0002846FFF745FD0028E1D00248EAE700BF92
:1065B000EDC20F0011C30F00F8B53C4C3C4F2368EF
:1065C0003C4E013305D13C682368013365D000257A
:1065D0000CE0201D0022582101F0DEFA25683C68FD
:1065E0002B1A5D425D41236801334ED000225821B1
:1065F000201D01F0D1FA2368834246D16368012B44
:1066000009D00022C32104F5187001F0C5FAD4F8AE
:106610005C32834239D14FF46072002D3BD0234964
:10662000244803F009FA3C6823485422211D03F052
:1066300003FA22484FF4327204F15C0103F0FCF9D2
:106640007768012F31D11E4CA4F5E4750FCD0FC42E
:106650000FCD0FC40FCD0FC495E80F0084E80F00D5
:1066600004F11005A4F5DC740FCC0FC594E8070005
:10667000002386F8603286F8E232F36986F8A17268
:1066800085E80700C6F8A2320DE035B107494FF49E
:1066900060720848D2E73968FBE706484FF4607239
:1066A000002103F063FA02237360F8BD00F00F00CD
:1066B000002B0020FC420020004300205843002013
:1066C0002046002070B50D4C05460022582120467A
:1066D00001F062FA002244F8040CC32104F517709B
:1066E00001F05AFA261FC4F858022A463146044BD4
:1066F0000448BDE87040FFF72FBF00BF00430020F3
:106700007C3F002000F00F0008B502460648074B0A
:106710000068FFF721FF014620B1BDE808400448AA
:1067200003F0A2BA08BD00BF002B0020FC3B0020F4
:1067300039C30F000149FFF7E7BF00BF00F00F00AA
:1067400038B505460020FFF7BDFF044618B90349D8
:106750002846FFF7D9FF204638BD00BFFC42002085
:1067600010B5FFF755FC044628B10146074803F071
:106770007BFA032010BDFFF71FFF2046FFF7E0FF65
:106780000028F7D001460248F1E700BF78C30F00A8
:10679000A5C30F0010B5084C4FF40072FF2120462E
:1067A00003F0E4F920220021A4F1240003F0DEF933
:1067B000002344F82C3C10BD5843002038B1054B51
:1067C0000360054B436001230372002070470E20D5
:1067D000704700BF03680F00DD670F0069B10B78D9
:1067E000022B0CD1022804D003280CBF1120082052
:1067F000704703230B70002070470E20704708205D
:10680000704710B50C4681B10B78012B06D00ED91C
:10681000033B012B8CBF1120082010BDFFF748FE61
:106820000028FAD102232370F7E70E20F5E70820AD
:10683000F3E70000F8B5094F094CE41B0646E408ED
:106840000025A54201D10020F8BD57F8353030466B
:1068500098470028F8D10135F3E700BF3CD20F007C
:1068600044D20F00F8B5094F094CE41B0646E40872
:1068700000250437A54201D10020F8BD57F8353076
:10688000304698470028F8D10135F3E73CD20F0095
:1068900044D20F00034A0023036043608360136304
:1068A000704700BFFC4200204FF44053074A59682C
:1068B000914201BF986800F6FF7020F47F6020F0DD
:1068C0000F0018BF4FF48050704700BFDBE5B15197
:1068D00008B5FFF7E9FF054B9B69184400F6FF7008
:1068E00020F47F6020F00F0008BD00BFFC420020B4
:1068F0004FF48050704700002DE9F047DFF8A8A062
:1069000005460E46174698464FF00009B9F1010FAB
:1069100030D0B9F1020F01D11F4B32E0FFF7D8FFA1
:1069200057B9AAEB0004AC4222D30EBB5FFA89F33D
:106930004BBB0020BDE8F087184B1B6A5A1E534220
:106940005341AAEB0004AC4201D3002EEED0F3B9C0
:1069500009F10109B9F1030FD8D1AC4213D218E003
:106960004FF440530E4A5B689B1A18BF0123E8E7B7
:106970004FF00109FFF798FFB8F1000FF0D0AAEB34
:1069800000039D4205D80748FFF784FFD1E7AC42DA
:10699000CCD20420CEE700BF00400F00FC42002014
:1069A000DBE5B1511443002000500F002DE9FF47F3
:1069B0003249334D8A6B334C334FDFF8EC90DFF8BC
:1069C000ECA06E465C31304601F0B0FE96E80F0058
:1069D00085E80F0000212D4B39704FF44772204697
:1069E000C9F80010CAF80010EB6003F0BFF828499E
:1069F0002246284602F036F938B9264803F046F90F
:106A00000027384604B0BDE8F0873F783FB194F8DE
:106A10006C3194F800801BB3B8F1000F01D01E4810
:106A2000ECE794F87231002BEAD0DAF80020D9F8BC
:106A30000010304601F07AFE96E80F0085E80F005E
:106A40004FF4B272414604F5BA7003F08FF813495F
:106A500004F5BA72284602F005F958B91048CDE796
:106A6000B8F1000FCCD0A379002BC9D008340D4B5E
:106A70001C60C6E704F5BA74F9E700BFFC420020C9
:106A80004C470020644700207C4600202D6B0F00FF
:106A900090BF0F00E1C30F000FC40F0030C00F0004
:106AA0002FC40F0048470020604700205C470020AB
:106AB00010B590F8553013F0FB0F0C4608D190F844
:106AC00064306BB1836E5BB123600124204610BD3E
:106AD00003F00202DB0705D412B190F85C30A3B9D1
:106AE0000F2418E090F85630002BF5D0836D002A63
:106AF000E9D090F85C20002AE5D0094A016EC2F581
:106B00007E22914203D80B44DDE70023F5E70548D8
:106B100003F0AAF80424044803F0B8F8D6E700BF4D
:106B200000500F006CC40F008BC40F0030B55B68C1
:106B3000DA680D4B9A420AD1D0E901340B48026859
:106B400012B90B490A681AB10A4B00221A7030BDFB
:106B50001A4612F9015B002DFBDB23449B1A0260ED
:106B60000B600122034BF1E730C00F0060470020AB
:106B70005C4700207C46002010B54FF44052124C78
:106B8000516800F50053A142586803D0031B5842D6
:106B9000584110BD884214D11178142982BF506920
:106BA0000A4AB0FBF2F01A7898BF0020142A83BF7B
:106BB0005B69064AB3FBF2F30023C01A18BF012039
:106BC000E7E70020E5E700BFDBE5B15140420F00F9
:106BD00000B591B001F022F968460849202201F081
:106BE00050F96A4606490748402301F061F8064B10
:106BF00001221A7011B05DF804FB00BFA0B40F00B1
:106C00000047002000CA0F007D460020F0B5A3B069
:106C100007460C4615461E4678222023002104A86C
:106C2000029302F0A3FF002303931E4B1B780BB9C2
:106C3000FFF7CEFF6CB377BB02AB01931A4B009307
:106C40001A49289B324604A801F0CEF828BB402DF3
:106C500023D1174B214604F140021C4651F8040B86
:106C600043F8040B9142F9D11148202101F015F9A4
:106C70004023CDE900430F49029B0B4A03A801F0D2
:106C800039F8014658B10C4802F0EEFF052023B058
:106C9000F0BD1320FBE71620F9E70A20F7E70120F3
:106CA000F5E700BF7D4600209E4600200CCA0F007D
:106CB000BE46002000470020BDC40F00F0B5ABB0B9
:106CC00004460D4616461F467822202300210CA8B4
:106CD000039302F04BFF134B1B780BB9FFF778FFC0
:106CE0002FB12146202204A801F0C0F804AC03AB68
:106CF0000D4F0E490193009733462A460CA801F028
:106D000073F8014628B10A4802F0AEFF00202BB00C
:106D1000F0BD20222146384602F076FFB0FA80F01E
:106D20004009F4E77D4600207E4600200CCA0F0093
:106D3000E1C40F0008B5044B986B08B1FFF736FEAD
:106D4000024B187008BD00BFFC420020804A0020A2
:106D500010B5044658B1B0F5007F0AD8064B0022A2
:106D60001A70FFF717FD054B01209C6310BD03202F
:106D7000FCE70420FAE700BF804A0020FC42002024
:106D800070B50F4C0646E06BA36B42189A420D4655
:106D900004D90C4802F07AFF032070BD5C300A462B
:106DA0002044314602F048FEE36B04F140022B44DC
:106DB00029463046E36300F0EFFE20640120ECE753
:106DC000FC42002014C50F00014B1878704700BF2B
:106DD000804A002013B5104C94F86C21B2B194F89D
:106DE000D802B4F8DA2204F5377104F5B8740B4B05
:106DF0001B6800930A4B1B68FFF708FF012809D1A5
:106E0000201D02B0BDE8104000F0FCB9114610464C
:106E10000434ECE702B010BD644700205C4700205A
:106E2000604700202DE9F041234BD3E90E329A420E
:106E300006460D4606D0214802F028FF08242046C9
:106E4000BDE8F081DFF8848098F800704FB1FFF75B
:106E50003FFD1B4B306029461868BDE8F041FFF745
:106E600027BEFFF7A3FD10B3FFF7B4FF012837607B
:106E700004462F6012D1124B29461868FFF718FEFE
:106E8000012804460AD103463A4628683946FFF7E6
:106E900033FD30B10B4802F0F9FE0424FFF77AFC11
:106EA000CDE7FFF715FD88F800403060C7E70648DA
:106EB00002F0ECFE0524C2E7FC42002038C50F00BA
:106EC0004847002054C50F0070C50F00804A0020BD
:106ED00001237230FFF7F2BE13B50446084623784B
:106EE0001146032B22D8DFE803F002050F1801201A
:106EF00002B010BD0022D4F8014000F04DFE8442E3
:106F000014BF00200120F3E70A4600230146601C5D
:106F100002B0BDE81040FFF7D1BE00910346402209
:106F2000611C0020FFF772FE0128E9E70020DFE77F
:106F30002DE9F043A3B005460E4614460021782201
:106F40001F4604A820239DF8AC800393DDF8A89089
:106F500002F00CFE41220021284602F007FEB6F89E
:106F60009430A34282BF442303FB046393F89680CA
:106F700085F80080B8F1030F31D8DFE808F0090286
:106F80000F2500224946384600F006FEC5F80100EC
:106F90004A4639462846FFF79FFF12E003AB0193AC
:106FA0006B1C00930F494B463A4604A800F01CFFA7
:106FB0000028EDD002F02AFB01460B4802F054FEF7
:106FC000002023B0BDE8F08344235C4333199A3496
:106FD000B3F898203119681C02F02EFDD8E7034859
:106FE0004146EBE70CCA0F008EC50F00C1C50F006C
:106FF0002DE9F047784B1E68A4B004468846154634
:107000000A4601463046FFF763FF002800F0D880AB
:1070100096F8557057BB4FF00109CDE9008923461A
:107020003A46314613A8FFF783FF20B9002D40F000
:10703000CC800525C6E07DB3684D412213A905F239
:10704000A12002F0F9FCC5F82C902F627368AB60A8
:1070500000224146204600F09FFD604BC3E90980B5
:107060000125FFF797FB5D4B9C6418E0412200214E
:1070700002A802F07BFD07F001094122002113A8BC
:1070800007F0020702F072FDB9F1000F0BD1002FDB
:107090006DD1002D40F08A80504B01255D6128465E
:1070A00024B0BDE8F08704F500524D4B5068D6F887
:1070B00058A0984203D04B4802F0E8FDB6E70AF525
:1070C000FF530AF6FF71C1F30B011F335B1A91687E
:1070D000994201D24448EFE74FF440535968814246
:1070E00005D118781178102808D810290ED8204614
:1070F000FFF742FD70B16FB93C48DDE710291B690D
:1071000006D912699A42F2D03948D5E70023F8E748
:107110000022F7E70123CDE900A3002223463146F0
:1071200002A8FFF705FF002880D0B26D17B3A3189F
:10713000A8EB02020021CDE9002113A84A463146FE
:10714000FFF7F6FE00283FF471AF002DA4D0B9F18F
:10715000000F11D1214BAA22DA62204F412213A93C
:1071600007F2E22002F068FC7368FB601AE0424616
:107170002346DFE7002D8FD02046FFF7FDFC10B13E
:107180001C48FFF787FBDFF85490412202A909F55C
:10719000187002F051FCB36D67B9A522C9F82C2014
:1071A000C9F83430002D3FF477AF51E70B4BAA22DA
:1071B000DA624DE7AC22C9F82C20C9F83430CCE7AC
:1071C00045B91725FFF7E6FA69E705250A48FFF7ED
:1071D00061FB46E71725F9E748470020FC420020FD
:1071E000DBE5B151E4C50F0036C60F000EC70F0036
:1071F000A0C60F0014430020204300200122FFF707
:10720000F7BE0000F8B590F85430054663B190F829
:107210005500032808D895F86E30032B09D02C4868
:1072200002F034FD1420F8BD2A4802F02FFD0F2093
:10723000F9E72B7A0BB92848F7E7EB68342B44D1F0
:107240004FF44054254A61682B8A914231D143B1B1
:107250006A69AAB1DBB205F110010022D6B2B342CD
:1072600001D81220DFE7A68951F8047FB74202F166
:107270000102F3D12B7823B301286B6806D911E002
:1072800058B9012BEDD12B78EBB16B68144A90689B
:10729000834234BF10200120C5E70128E1D02B78BC
:1072A0008BB16B680E4AD06883428CBF01201020DE
:1072B000B9E713B16B69002BD3D12B78002BD9D14F
:1072C000CFE70128AFD00748AFE71120ABE700BFF9
:1072D00068C70F0050C70F007CC70F00DBE5B15136
:1072E000FC4200208CC70F00831F012B10B5044601
:1072F00002D80020FFF7B6FA034B1B681BB12046EB
:10730000BDE81040184710BD844A00200A4B10B554
:1073100018600020FFF7E8FF0848FFF78BFA0446E3
:1073200020B9BDE810400548FFF79CB80146044865
:1073300002F09AFC204610BD844A0020E9720F003A
:10734000A1C70F0080F308880847000070B5054604
:10735000C1F30B00A8B9B5F57F2F12D80B4E3268D8
:10736000072A10D8130103F1804404F5F0340132E8
:10737000C4F80058C4F804180221C4F80818326090
:1073800070BD0720FCE70420FAE700BF884A002010
:1073900038B505461B48C0F57F21FFF7D7FF0446E7
:1073A00030B10146184802F05FFC2046FDF7F2FEBE
:1073B000FFF77AFA154B9B6903F6FF7323F47F639B
:1073C00023F00F0319180020FFF7C0FF044630B167
:1073D00001460F4802F048FC2046FDF7DBFEEFF3C4
:1073E00005830023D5E9000183F31488BFF36F8F71
:1073F00083F3108883F3118883F31388BDE8384042
:10740000FFF7A0BF00500F00CDC70F00FC420020C7
:1074100006C80F0008B5094B4FF0FF32C3F88020B3
:10742000C3F88021FEF748FE10B1054802F02EFC9B
:10743000BDE808404FF48050FFF7AABF00E100E02C
:107440003CC80F0037B56FF07F42154C057BD4F870
:1074500004358A4228BF0A46891A13444A1E942AD0
:1074600023F07F4305F5A8729CBF963B963141609F
:1074700044F822300B4B4FF4F86043F00103984777
:10748000094BAA00134400221A601B680193019B58
:107490004FF48033AB40C4F8043303B030BD00BFB9
:1074A0000040024080C80F00404102401FB518490B
:1074B0000B7853BB4FF08043A024D3F81824D20399
:1074C0005CBF01229A60134B0022C3F80021D3F85D
:1074D000000103900398C3F84021D3F840010290C3
:1074E0000298C3F84421D3F84401019001980A4856
:1074F00080F82443102444600220C3F808250122A8
:107500009A601A60C3F804030A7004B010BD00BF8B
:107510008C4A00200040024000E100E073B51B4BA4
:10752000D3F8042152B11A490A6801320A600022D4
:10753000C3F80421D3F804310093009B154C164D79
:10754000164E2B6883B100232B602B68227B01939E
:10755000019B4FF4803393400C4AC2F808336168B2
:1075600051B12046FFF76EFFB54204F1100401D17E
:1075700002B070BD3546E4E7A16811B12046FFF7BF
:1075800061FF2368002BEFD09847EDE700400240F1
:10759000904A00200C2B0020404102404441024010
:1075A00070B50B4B1D682A7B4FF480339340094A1A
:1075B0000E46C2F80833044640B1FFF777FF2E604D
:1075C00021462846BDE87040FFF73CBF70BD00BFB4
:1075D000082B00200040024070B5074B1D680E4686
:1075E000A8600446FFF762FF2E6021462846BDE8EA
:1075F0007040FFF727BF00BF042B0020014B012282
:107600001A707047944A002038B5124BDA6A5D6AE6
:107610009C6CAC2A13D15B6B1C44ED1A0E482A46B5
:10762000214602F0F1FA38B100F090F920462946DF
:10763000FEF724FD044640B90024204638BD002C46
:10764000ECD1FFF745F90446E8E7044802F01EFBD9
:10765000F3E700BFFC42002000500F0086C80F0077
:1076600081422DE9F74F04460F46154604D1002309
:10767000184603B0BDE8F08F3E1B360B02F6FF78CC
:1076800000F03EF9082E28BF08263303DFF870B05B
:1076900001934FEA1838002DE9D046452CBFC24669
:1076A000B2464FF000025146204634BFDDF8049048
:1076B000A946FEF7CBFC03460028D9D109F1030205
:1076C00022F0030239462046FEF7B2FC03460028AA
:1076D000CED1DBF830304B44A8EB0A08A5EB090506
:1076E0004C444F44CBF83030FFF72AF80028D2D072
:1076F0000190024802F0CAFA019BB9E7A1C80F0045
:10770000FC42002038B5FFF7F3F8144A916C136B74
:10771000526B01F500546568114CA54205D0114823
:1077200002F0B4FA0324204638BD934214D0D21A92
:1077300002F6FF7222F47F6222F00F02194418440D
:10774000FFF78EFF044618B1074802F09FFAEAE7F8
:10775000BDE83840FEF7F4BF0024E4E7FC42002017
:10776000DBE5B151DBC80F0010C90F0070B5384D13
:10777000EB6AAA2B58D005D8012B0FD0A52B4CD0E3
:10778000002070BDAC2BFBD1FFF7BCFF04460028E6
:107790004FD0304802F07AFA012614E0AC6C6E6AE1
:1077A000FFF782F82A6B03469C4204EB0201104467
:1077B00014BFB21A0022FFF753FF044648B126480F
:1077C00002F064FA0026EA6A2448214602F04CFAE4
:1077D0000EE0FFF769F82246314600F0DDF9A96AAC
:1077E0008842024615D10123C5E90703AE61002690
:1077F0001B48FFF74FF81B4B1B4800221A70FEF77F
:107800009FFFF0B916B32B6A012B14BF0120022091
:10781000B7E7164802F028FAE9E7FFF773FF0126F9
:107820000446002CE4D0CEE7FFF7EEFE0026044627
:10783000F7E7FFF7E9FE044608B10D48AAE701267D
:10784000D6E70C4802F022FA03209AE7012098E7D5
:10785000FC42002074C90F0010C90F00A2C90F001C
:1078600020430020944A0020FD750F002AC90F0014
:107870008BC90F00D6C90F0010B50024D4F8F83F0B
:10788000013304D1084940F6F87000F085FDD4F8C2
:10789000FC3F013307D1BDE810404FF47E2140F694
:1078A000FC7000F079BD10BD00500F000A4AD2F8FC
:1078B00000347BB109480023D2F80815D940C90724
:1078C00048BF03F5C07103F1010348BF42F821002E
:1078D000072BF1D1704700BF000001403546526EC2
:1078E000FFF7E4BF054B002282B0C3F80021D3F8B4
:1078F00000310193019B02B0704700BF00000140BE
:1079000038B50E4C2378BBB90D4BD3F800248AB19F
:10791000D3F80455FFF7CAFF40F61650A842B8BF87
:1079200028460849A0F54860FFF756FE064B4FF47D
:1079300080321A600123237038BD00BF954A0020B1
:1079400000000140E1780F0000E100E0034BD3F8B4
:1079500000340BB1FFF7AABF704700BF0000014021
:1079600041DF7047014B01221A707047B84E00206A
:10797000BFF34F8F0549064BCA6802F4E062134318
:10798000CB60BFF34F8F00BFFDE700BF00ED00E00D
:107990000400FA05024B034800221A70FEF7CABE23
:1079A000B84E002071790F00042810B5044609D89C
:1079B000022811D816D00D4B1B68B3B12046BDE884
:1079C00010401847831F012BF5D8094B09480022A6
:1079D0001A70FEF7AFFEEEE707494FF4B400FFF769
:1079E000DFFDE8E7FEF7E8FDE5E710BDBC4E00204F
:1079F000B84E002071790F0095790F000020704774
:107A000038B5594B18600020FEF7AAFE044600283E
:107A100040F0A480FFF7AAFE012800F0978002281A
:107A200000F09E80002840F099804FF080424F4C3B
:107A3000D2F80014256ACB0333D54FF48031C2F855
:107A40000014012D3AD04FF4B404FFF759FF484A0F
:107A50002021182001F092F908B1FDF79BFB4FF0AF
:107A60008043D3F81C2502F0F902B12A02BFD3F8F3
:107A70001C2502F04E02C3F81C25FFF7BFFF0028AB
:107A80006CD120463B49FFF78BFD3B48FFF73EFC9E
:107A9000002863D1FFF75AFF01F0F2F9FFF760FF0A
:107AA000F8E7D2F8201501F0F901A9292ED1D2F872
:107AB000201501F05601C2F82015C2E74FF44053DB
:107AC0005A682E4B9A421AD0FEF7EEFEA26994F83D
:107AD000A132012B25D14FF08043D3F81C3503F0A0
:107AE000F903B12BAFD0FEF71FFD002836D1244B90
:107AF00018702448FEF71EFEFFF78CFC2BE094F86C
:107B00006032626B012BDFD0002512E0012D9AD18B
:107B10004FF440525168194A914209D0FEF7C4FE11
:107B2000A26901461848FFF7D7F90028D3D18AE7A0
:107B3000626B16484FF48051FFF7CEF9002882D0CF
:107B4000FEF7B2FEA269002DEBD1C0E70C4B104846
:107B50001C70FEF7EFFD0F4802F098F8032038BDC7
:107B60004FF4A02471E700BFBC4E0020FC4200206F
:107B7000984A002095790F00A9790F00DBE5B151F3
:107B8000B84E002065790F009D4500205C4500201F
:107B900071790F00F1C90F0030B53AB11368DB43BA
:107BA0000A4D0144884204D1D84330BD4FF0FF3321
:107BB000F6E710F8012B5340082213F0010418BF18
:107BC0002C46013A84EA5303F7D1EBE72083B8ED62
:107BD00043689B68184708B5436808305A7900F035
:107BE00050F9002008BD2DE9F0430C469BB0084633
:107BF00098461746FFF7ECFFD4F8049099F8055023
:107C0000454528BF454606462A46394602A800F0A3
:107C10002DF999F8052022990AA800F032F900966A
:107C20000AAB2A4602A904F1080003F087FA0028EB
:107C300048F2425018BF00201BB0BDE8F08310B5D9
:107C400013681F2B144607D90022083001F037FAB9
:107C500008B92023236010BD48F21450FBE7083018
:107C600001F00ABA083001F0D7B9034620B131B1AA
:107C70000020C1E90003704748F21050704748F2F5
:107C80001350704730B1036848F240508B4208BF30
:107C90000020704748F21050704728B148F2115048
:107CA000914208BF0020704748F210507047000012
:107CB00070B506460C461D46FFF7D7FF60B9B3798D
:107CC0005AB1AB420CD1094B6BB111462046FFF7BC
:107CD00082FF08B9064B236070BD48F21050FBE7E5
:107CE00048F21150F8E748F20350F5E7D77B0F0050
:107CF0007052464D2DE9F0470C4606461249204683
:107D0000DDE9088915461F46FFF7BCFFB0B9636877
:107D10005A79494652004046FFF7BFFF70B95DB13E
:107D20000A4B6BB1CDF820803B462A4621463046AF
:107D3000BDE8F047FFF757BF48F21050BDE8F087A5
:107D400048F20350FAE700BF7052464DE77B0F0040
:107D500010B5044638B149B141600B68984708B97D
:107D6000044B236010BD48F20150FBE748F210506D
:107D7000F8E700BF6E524648F0B4134648B10768B2
:107D8000094EB7420AD161B12AB14368F0BC5B68C1
:107D9000184748F201531846F0BC704748F20253A6
:107DA000F9E748F21053F6E76E524648F0B460B176
:107DB00007680C4EB7420CD171B143681568DC6896
:107DC000A5420CD3F0BC9B68184748F20150F0BCA8
:107DD000704748F20250FAE748F21350F7E748F2CA
:107DE0001450F4E76E5246482DE9F0410446DDE9AF
:107DF000067815461E46FFF7ABFF60B932462946A6
:107E00002046FFF7B9FF30B9424639462046BDE863
:107E1000F041FFF7CBBFBDE8F0810000F8B50A4F95
:107E20000A4C0B4EE41B0123E40833700025A542E5
:107E300003D1022333700020F8BD57F8353098473E
:107E40000028F9D10135F2E73CD20F003CD20F00F7
:107E5000C04E002001390144814200D270470378AE
:107E60000A7800F8012B01F80139F5E7013A0244DC
:107E70000139824200D2704711F8013F02F80139FE
:107E8000F7E770B516460D46FFF7F0FF3246A91921
:107E90003044BDE87040FFF7E9BF38B50D460446F1
:107EA000FFF7D8FF29466019BDE83840FFF7D2BF79
:107EB00001600B6843604A68934208BF0023436037
:107EC0007047436843B1026891680B44436052684D
:107ED000934204BF0023436070470000014B43609E
:107EE0000020704744CA0F000846704700207047C2
:107EF000024B1868003818BF01207047C44E00209C
:107F000008B50248FDF71CFC002008BDC44E002047
:107F100008B510461A4601F08FFD002008BD00008C
:107F20002DE9F041804686B011480F4616461D46A1
:107F3000FDF703FC0446C8B9AA083146384600F0EC
:107F400041FA0B48FDF7FCFBD8F8083053B1012289
:107F50008DF800200C9A0592CDE90147CDE9036523
:107F600068469847204606B0BDE8F0811124F9E73D
:107F7000C44E00202DE9F043814687B014480E46D8
:107F800015469846FDF7D9FB0446F0B90746BD42B1
:107F900015D10F48FDF7D4FBD9F808305BB10222A8
:107FA0008DF800200022CDE90126CDE90325CDF88A
:107FB000148068469847204607B0BDE8F08306EB7A
:107FC000073000F0D1F90137E1E71124F3E700BFF2
:107FD000C44E002029DF704728DF704770B506685F
:107FE000B36886B004460D4673B11422002168467A
:107FF00001F0BCFDA36805932379019533B1012BF2
:108000000ED0B3686846984706B070BD01238DF85E
:10801000003023690293E368039363690493F0E7F4
:1080200002238DF80030E3681B030293F5E708464E
:108030007047002070470000024B187A003818BFC4
:1080400001207047D04E0020034B187A0122B0FA6D
:1080500080F05A7440097047D04E002008B5104691
:108060001A4601F0E9FC002008BD000008B5142202
:108070000021044801F07AFD0348FDF7AFFA002023
:1080800008BD00BFD04E0020E44E002010B5094CC2
:10809000094B43602046FDF750FB48B901F080FAD8
:1080A000064920741C2306484FF4EE72FDF783FA4C
:1080B000002010BDD04E002070CA0F00F44E0020EA
:1080C000E44E002038B5224C224D237A3BB9224998
:1080D0002248FDF7DFFA286008B9606038BD022346
:1080E00023722B681A7972B1012A22D028680321E1
:1080F000FFF774FF002323726360BDE83840164920
:108100001648FDF7F2BAD3E90520121A142AD3E96A
:10811000031328BF14229208012A014438BF012208
:108120001844FFF757FF50B11128DFD10123237204
:10813000D4E7D3E903031844FFF74EFFF3E7237CAA
:10814000002BCBD1BDE83840022000F009B800BFB9
:10815000D04E0020CC4E0020C84E0020E44E00201F
:1081600038B5234C237A0246002B3FD0022B09D18D
:10817000032824D01F4B18680023E36003793BB128
:10818000012B16D0637C6BBBBDE83840FFF79ABF6C
:10819000D0E90513CD1A142D94BF5B1914338361F4
:1081A0009942EFD10023022A237214BF0D211946F0
:1081B00011E003694169013303618B42F1E7E36830
:1081C0000133082B01D8E360DCE70023E36023726E
:1081D000084B18680D21FFF701FF07490748FDF715
:1081E00084FACFE7BDE8384001F0CAB938BD00BF16
:1081F000D04E0020CC4E0020C84E0020E44E00207F
:10820000831E012B01D8FFF7ABBF704700F0FD03C1
:10821000012B08D1044B00225A74421E5042504197
:108220001874FFF74FBF7047D04E002008B50648BE
:10823000FDF783FA30B9054B5B7C1BB9BDE80840FC
:10824000FFF740BF08BD00BFD44E0020D04E002035
:108250002DE9F34180460D46104801A916461F46F8
:10826000FDF7DEF90446B0B117220021053001F018
:108270007DFC2D0B0123237101A90848C4F800805F
:10828000A760E5606661FDF7F5F9FFF7CFFF002015
:1082900002B0BDE8F0810420FAE700BFE44E002000
:1082A0002DE9F34180460F460F4801A916461D46A9
:1082B000FDF7B6F90446A8B118220021043001F0F8
:1082C00055FC089BA36001A9C4E903670648C4F8EC
:1082D00000806561FDF7CEF9FFF7A8FF002002B02E
:1082E000BDE8F0810420FAE7E44E002001600B684D
:1082F0001146184710B40468E468A4465DF8044BBE
:10830000604710B404682469A4465DF8044B6047D4
:1083100070B550B90E4D0F4C0026641B1423B4FBEE
:10832000F3F4B44208D1002010E00368002BF1D030
:10833000BDE87040DB6918472B6813B90136143566
:10834000EFE7DB69284698470028F7D070BD00BFEB
:108350002C2B0020402B0020024AD2F80034002BA6
:10836000FBD0704700E001400A4908B50223C1F87C
:108370000435BFF36F8FBFF34F8FC1F80805FFF7C8
:10838000EBFF0023C1F80435BFF36F8FBFF34F8FAE
:1083900008BD00BF00E0014010B5094C0123C4F83E
:1083A0000435BFF36F8FBFF34F8F0160FFF7D4FF2A
:1083B0000023C4F80435BFF36F8FBFF34F8F10BD98
:1083C00000E0014070B50E4E01231546C6F8043595
:1083D000BFF36F8FBFF34F8F0024AC4207D1002350
:1083E000C6F80435BFF36F8FBFF34F8F70BD51F8E0
:1083F000243040F82430FFF7AFFF0134EDE700BF31
:1084000000E001400023C0E90232C0E900118B887E
:108410001A440261B1F906301A44426108880038F2
:1084200018BF0120704710B542681188034641B15A
:1084300002F110014160118A29B9C2680168FFF791
:10844000E1FF002010BD9078118900F03004302C3D
:108450001BD1947C04F03004302C1DD19088196914
:10846000091A19610021907810F0300F02BF986846
:1084700001309860908A0844196901441961B2F981
:108480001620114459610120DCE700F0F004202C93
:1084900002D150894143E6E700F0C000802808BFC0
:1084A0000421E0E770B5466804460D4663681A8803
:1084B000AA4204D19B7803F00F03082B07D1204672
:1084C000FFF7B1FF6368B342F0D1002070BD012017
:1084D000FCE743681A44426011B101399A4201D164
:1084E0000120704713F8010B01F8010FF6E710B5F2
:1084F000836804460BB9002010BD03680122984729
:108500000028F8D0A368013BA360F5E72DE9F3410B
:108510000F460DF107018046FFF7E9FF054620B938
:108520000025284602B0BDE8F0819DF907309DF88E
:108530000740002B13DA04F07F0407260DF1070132
:108540004046FFF7D4FF0028EAD09DF8072002F04C
:108550007F03B3401C43130606F1070601D43C60B9
:10856000DFE7232EEAD1DBE770B54268927802F0AC
:108570000F01082986B003461FD103691C68002635
:108580000CB906B070BD236826739D6862682946E1
:108590006846FFF737FF6368049304F10C03059303
:1085A000AB7803F0C003802B08BF231D684608BFCB
:1085B0000493FFF7D9FFA468E2E73F2A28D802F026
:1085C0003001102911D14269002111705A681869CF
:1085D0009378D46803F00F03072B0CD10146204693
:1085E00006B0BDE8704000F01FB89106EED54369B3
:1085F00000221A80C5E71289214624B106B0BDE8E1
:10860000704001F019BA06B0BDE8704001F0AEBA92
:1086100002F0C0018029B4D10069002101609206F6
:1086200044BF5B691980ACE77FB50A4601466846DE
:10863000FFF7E8FE30B16846FFF796FF6846FFF7A0
:10864000F2FEF7E707B05DF804FB000030B5044622
:1086500085B01546A9B90268114B9A4211D0102D68
:1086600006D82A4669462046FFF7F0FF05B030BD20
:10867000102269462046FFF7E9FF0028F6D0103D9A
:10868000EDE7A368AB4201D20020EFE723682A465A
:10869000204698470028F7D0A3685B1BA360E5E756
:1086A000D3840F002DE9F3410F4601A980461646F9
:1086B000FFF72CFFA0B1019C621C4FF0000504D213
:1086C000BB7803F0C003802B01D1284608E03B892A
:1086D0009342FAD3224631464046FFF7B7FF35555D
:1086E00002B0BDE8F08173B50D4601A906461446F7
:1086F000FFF70CFFB0B1019AB2F5803F12D2AB7810
:1087000003F0C003802B02F102010BD02B898B42B6
:1087100008D32146304621F8022B02B0BDE8704054
:10872000FFF794BF002002B070BD000010B5034CED
:1087300082600022C0E90041C26010BDD3840F00F6
:108740002DE9F341002506460F46A8462C460DF1BB
:1087500007013046FFF7CBFEC0B19DF807C0A4F17A
:1087600020030CF07F02C4F1200102FA03F322FA85
:1087700001F10B43A2401CF0800F45EA020543EAD9
:10878000080804F1070404D1C7E9005802B0BDE8A5
:10879000F081462CDBD10020F8E737B50D4669465D
:1087A0001446FFF7CDFF70B12B89082B0DD1DDE901
:1087B0000032C4E90032DDE90001914208BF98426D
:1087C0000CBF0120002003B030BD042B03D1009B5F
:1087D00023600022EFE7022B03D1009B23809BB292
:1087E000F7E7012B04D1009B237003F0FF03F0E7B0
:1087F0000020E8E737B50D4669461446FFF7A0FFAD
:1088000030B12B89082BDDE9001203D1C4E9001235
:1088100003B030BD042B4FEAE17009D121600B4653
:108820000246824208BF8B420CBF01200020EFE7C6
:10883000022B03D10BB22380DA17F2E7012B02D10E
:108840004BB22370F8E70020E2E7F7B51F4600239C
:108850003B700D460B70136001A904461646FFF7E6
:1088600055FE38B9A36813B1002003B0F0BD012351
:108870003B70F9E7019C002CF9D0E30804F00704F1
:1088800033602C70F1E713B50446052921D8DFE8E1
:1088900001F0030F1720201E012201A92046FFF737
:1088A000D5FE18B19DF90430002BF5DB02B010BDE8
:1088B00008220021204602B0BDE81040FFF7C6BEE6
:1088C00001A9FFF723FE0028F0D0019AF1E7042266
:1088D000EFE70020EAE773B50D4601A90446FFF76C
:1088E00015FE064618B90026304602B070BD94E861
:1088F0000F0085E80F0001998A42F4D3A960A368AC
:108900005B1AA360F0E700002DE9F0435768BB78DD
:1089100013F0C00489B006468C46154603D0402C9F
:108920006CD000240CE003F00F02614903F0300327
:10893000202B51F8228028D006D8CBB1102B1ED086
:10894000204609B0BDE8F083302BF9D16B69398836
:108950001980072A0AD16B6828691A89214601F013
:1089600005F96B682969D868FFF75EFE2A6942E05D
:108970002A693946434609B0BDE8F04318476B6998
:1089800001221A702A696968F4E7BCF1020FD5F870
:10899000149024D1042A22D804A9FFF79CFF04468E
:1089A0000028BED0069B2BB16968B9F800304A890F
:1089B0009A4205D8059B7360069B002BB1D1BFE797
:1089C00008892A6903FB002204A8C04728B1B9F826
:1089D00000300133A9F80030E4E70446EAE7B9F8CB
:1089E00000307A899A429CD92A693989581CA9F899
:1089F000000003FB012269683046BBE7D2F8108013
:108A0000474657F8043B23B909B0BDE8F043FFF7E8
:108A10003ABF022914D104A9FFF75DFF002880D0D6
:108A2000D8F8003069683A4604A8984704460028F8
:108A30003FF477AF069B002BF2D1059B73607FE775
:108A4000012926D005292CD000297FF46AAF0C46D5
:108A50000DF1040901340B2C3FF463AF01224946A8
:108A60003046FFF7F3FD00283FF45BAF19F9013BF7
:108A7000002BEFDB0F4B049301ABCDE90534002352
:108A80000793D8F8003069683A4604A89847044626
:108A900056E7082201A9FFF7D9FD08240028E9D1EB
:108AA0003FE704220DEB0201FFF7D0FD0424F5E7B8
:108AB0007CCA0F00D3840F002DE9F04790B0044624
:108AC000002604A8CDE90266FFF79CFCA3683BBB27
:108AD000DDE9053404A89D78FFF7A5FC0028F7D14F
:108AE00015F0300F03D1059B1B8803B10134002C16
:108AF00000F0B480630902A90022934240F0A780ED
:108B000010AA02EB830304F01F0453F8383CC4F1AD
:108B100020044FF0FF30E040C31A584258410DE0A6
:108B20000DF1030301AA0DF102012046FFF78DFEAE
:108B300038B99DF80330002BCAD1002010B0BDE831
:108B4000F087019F04A83946FFF7ACFC002857D1F5
:108B5000B7424CD3059D059A937803F00F03082B79
:108B60007ED004A8FFF75FFC059B9D42F3D14FF038
:108B7000FF36B7429DF8029039D3089BD4F808809D
:108B80001D68A36885B39845A0D12B68D3F800A0D1
:108B9000BAF1000F08D04B463A4629462046D04746
:108BA0000028CAD0AD68ECE7D3F808A0BAF80030C6
:108BB0009F42F7D16A6851460AA8FFF723FC6B6809
:108BC0000E9305F10C030F939AF8023003F0C003E3
:108BD000802B04BF2B1D0E9301232B730AAA494639
:108BE0002046FFF791FEDBE798457FF46FAF9DF8D5
:108BF00002102046FFF747FE00287FF467AF9CE78E
:108C0000059B9B7813F0300F0FD1069A3F2A0CD8A2
:108C1000510910AB03EB810102F01F0201239340C5
:108C200051F8382C134341F8383CD4F80C809DF8A7
:108C30000250B8F1000F04D004AB2A463946204652
:108C4000C04704AA29462046FFF75EFED4E751F844
:108C5000040B01307FF471AF01324EE701206DE764
:108C6000168886E770B50C4606461546114620461E
:108C7000FFF7DAFC2A4621463046BDE87040FFF790
:108C80001BBFF0B585B0CF680C4669460546164651
:108C9000FFF721FE68B1E06858B1A37803F0300314
:108CA000202B32463946684605D1FFF7DBFF019B92
:108CB0006B6005B0F0BDFFF7FFFEF8E713B50C469B
:108CC0006946FFF73DFD60B1DDE900134A0842EA5D
:108CD000C372C9074FEA530344BFD243DB43C4E91D
:108CE000002302B010BD37B50D4669461446FFF7A4
:108CF000E5FF70B12B89082B0DD1DDE90032C4E905
:108D00000032DDE90001914208BF98420CBF01200A
:108D1000002003B030BD042B03D1009B2360DA1781
:108D2000EFE7022B03D1BDF900302380F7E7012BD9
:108D300003D19DF900302370F1E70020E9E713B576
:108D400004220C460DEB0201FFF780FC08B1019BE9
:108D5000236002B010BD1146FFF7F1BF13B5082222
:108D60000C466946FFF772FC18B1DDE90023C4E93F
:108D7000002302B010BD1146FFF7F0BF4B1C30B509
:108D8000DB00044612F003009BB20DD1074D2A60B0
:108D90001A44074B1A60074B1870074B1870074BA3
:108DA0001C80074B198030BD0720FCE7DC500020F9
:108DB000D8500020D4500020D5500020D2500020A0
:108DC000D05000202DE9F743DFF8AC80B8F8003030
:108DD0008B4205460C46174643D300260DF107008B
:108DE0008DF8076000F052FC1F4B204ADFF88CC062
:108DF0001B78BCF800C010786045C1B238BF0131A3
:108E0000DBB238BFCEB2B3429DF8070005D100F007
:108E100061FC042003B0BDE8F08316781178CBB272
:108E20008C4586BF0133DBB20023137000F052FC87
:108E30000F4BF6B21B6843F8367003EBC60975B1E9
:108E40004CB10C4BB8F800001B682246294606FBC3
:108E5000003000F0F1FDA9F804400020DAE72C46CC
:108E6000F9E70920D6E700BFD5500020D4500020F4
:108E7000DC500020D8500020D2500020D0500020DC
:108E800070B5104C104D22782B789A4200D170BDED
:108E90000E480F4A2378126806880E4802EBC30179
:108EA000006852F83320898803FB060090470A497E
:108EB00022780988D3B2914286BF0133DBB2002306
:108EC0002370E0E7D5500020D4500020D25000207D
:108ED000DC500020D8500020D05000202DE9F04F69
:108EE000C9B008AA01F1400514464B780E781B045E
:108EF00043EA0663CE7833438E78043143EA06238F
:108F00008D4244F8043BF0D11024916B16464FEA91
:108F1000F14383EA714383EA9123716A366852F818
:108F2000045F31440B444FEAB54181EAF51181EA0F
:108F3000D50101340B44402CD363E6D1D0E914E3CE
:108F40000093836D0193C36D0293036E0393436E8D
:108F50000493836E0593C36E0693DDE9057ADDE91C
:108F6000031CDDE901592B4B009E079374464FF01B
:108F70000008079A08AB52F804BB53F82830079250
:108F80004FEAF12282EAB1129B4482EA71625A44AA
:108F900027EA010301EA0C0B83EA0B031A4452444B
:108FA00086EA05034FEA743A06EA050B8AEAB40A30
:108FB00023408AEAB45A83EA0B0308F101085344B8
:108FC000B8F1400F02EB090B1344A946BA4619D178
:108FD00073440365009B23444365019B33448365CD
:108FE000029B2B44C365039B5B440366049B0B44B9
:108FF0004366059B63448366069B3B44C36649B056
:10900000BDE8F08F674635468C46264659461C46D5
:10901000AFE700BFA0CA0F0030B5E0B10F4A10495A
:1090200000240025C0E91245C0E914120D4C0E4A77
:109030000E4DC0E916420E4AC0E918520D4A82662A
:1090400002F17452A2F523020023A2F692420364B5
:10905000C266184630BD0E20FCE700BF85AE67BB78
:1090600067E6096A72F36E3C3AF54FA57F520E51DE
:109070008C68059BABD9831F70B50C4640B12AB9EB
:10908000A5180026AC4205D1002070BD0029F7D1FB
:109090000E20FAE7036C14F8012BC2540133402B65
:1090A0000364EFD10146FFF719FFD0E9123213F53F
:1090B000007342F10002C0E912320664E2E7F8B53B
:1090C0000D4617460446002875D0002973D0066C5B
:1090D0008022731C372EA25518443ED8C6F13702A1
:1090E000002100F043FDD4E912230821E6FB01230F
:1090F000C4E9122312BAE26323FA01F284F83B3086
:1091000084F83A201A0C1B0E214684F8392084F882
:1091100038302046FFF7E2FE691E6FB30023E26E8F
:10912000DA4001F8012FA26EDA400A71626EDA406D
:109130000A72226EDA400A73E26DDA400A74A26D96
:10914000DA400A75626DDA400A76226DDA40083339
:10915000202B0A77E3D10020F8BD402BC6F13F0257
:109160004FF0000188BF002200F000FD214620469C
:10917000FFF7B4FE3822B3E71823226DDA4001F876
:10918000012F626DDA400A71A26DDA400A72E26D57
:10919000DA400A73226EDA400A74626EDA400A75A7
:1091A000A26EDA400A76E26EDA40083B13F1080F4D
:1091B0000A77E2D1CFE70E20CEE760DF704769DFA4
:1091C000704761DF7047000030B5134DADF5017D8C
:1091D0004FF4FA740DF1020103A8ADF80240FFF755
:1091E000F0FF70B9294601A8FEF762FE029B002B32
:1091F000F0D003A8D3E90021904701A8FEF761FE53
:10920000F4E7052805D00DF5017DBDE83040FBF7FA
:10921000C1BF0DF5017D30BDBCCD0F00024B1B78E9
:109220000BB1FFF7D1BF7047E050002018B1034BDE
:109230000360002070470E20704700BFE82A00201E
:1092400030B5054685B00C46002978D00023CDE91D
:1092500001333C4A039301230A608DF804008DF822
:10926000063001A906232020ADF80830FFF7A7FF3C
:1092700028B100F0CBF90146334800F0F5FC00239B
:10928000CDE9013303932268012301A940208DF821
:109290000530FFF794FF28B100F0B8F901462B48DC
:1092A00000F0E2FC0023CDE90133039322688DF83E
:1092B0000450F72301A92320ADF80630FFF77FFF04
:1092C00028B100F0A3F90146214800F0CDFC0023AD
:1092D00001202268039301A9CDE901338DF8040030
:1092E000FFF76DFF28B100F091F90146194800F031
:1092F000BBFC0023CDE9023322684FF4B06301A91F
:10930000A1200193FFF75BFF28B100F07FF9014630
:10931000114800F0A9FC00232268039301A9A020B2
:10932000CDE90133FFF74BFF10B9002005B030BD88
:1093300000F06CF90146094800F096FCF5E70E20B4
:10934000F4E700BFE82A0020A0CB0F00E8CB0F0015
:1093500036CC0F007FCC0F00CDCC0F0020CD0F00FE
:1093600038B50546FFF729FF2968044601F1604139
:10937000084800F079FC24B9074B01221A702046F6
:1093800038BD204600F042F90146044800F06CFC6C
:10939000F5E700BF75CD0F00E05000209BCD0F001A
:1093A0004BDF70471FB50E4C01A8FFF7F9FF70B9EE
:1093B000214602A8FEF77CFD039B002BF4D0019808
:1093C000D3E90021904702A8FEF77BFDF4E70528CA
:1093D00004D004B0BDE81040FBF7DCBE04B010BD03
:1093E000C8CD0F0010DF704711DF704713B504467A
:1093F00009496846FEF75CFD019808B902B010BD46
:10940000D0E900312046984718B16846FEF759FD6B
:10941000F2E71120F2E700BFECCD0F0013B50446D0
:1094200007496846FEF744FD019B0BB902B010BD29
:109430002046D3E9002190476846FEF742FDF3E756
:10944000E0CD0F00084B9A6822B11A6822F480021E
:109450001A607047054B4FF48002C3F88020BFF3B9
:109460004F8FBFF36F8F7047E450002000E100E0A2
:109470000B4991F81623EC2352091341DB0706D55B
:10948000084B9A683AB94FF480030B60704742F278
:109490000200FBF77FBE1A6842F480021A60704730
:1094A00000E100E0E4500020F7B5194F3C786CBBB8
:1094B000184E012520463570FFF798FF112821D05E
:1094C0002046FFF7ABFF144B8DF80340186801905E
:1094D0000DF1030000F0DAF8104901A8FFF782FF50
:1094E0000446B0FA80F0400938709DF8030000F09F
:1094F000F1F844B90A4B34701C70FFF7B9FF2846E5
:10950000FFF78CFF0024204603B0F0BD0824FAE7E3
:10951000E3500020E1500020F8CD0F0005510F006E
:10952000E2500020F7B5144E33781BB3134D0120E1
:109530002870FFF75BFF112818D00220FFF76EFF9D
:1095400000270DF107008DF8077000F09FF8FFF776
:109550004BFF04469DF80700377000F0BBF834B9A4
:1095600003202C70FFF76EFFFFF758FF0024204602
:1095700003B0F0BD0824FAE7E3500020E1500020DA
:10958000054B1B7833B1054B1B780BB1FFF7CABFF6
:10959000FFF78ABF08207047E1500020E350002009
:1095A000014B1878704700BFE350002007B5084909
:1095B0006846FEF77DFC019B13B903B05DF804FB20
:1095C000D3E9002090476846FEF77BFCF3E700BF35
:1095D000D4CD0F00FFF7EABF10B50B4AA2F5947384
:1095E0009A4201D800200CE0D11A091103EBC10402
:1095F00053F83110814205D802D204F10803EFE795
:10960000606810BD2246EBE740D10F0008B5FFF7B8
:10961000E3FF024B002808BF184608BD40D10F00E9
:1096200070B5134B134A0C21D21AB2FBF1F28169C7
:1096300011F8025C04462DB900690021914204D161
:10964000012010E04FF0FF30F7E71E68AE420CD16A
:10965000461C02D05E68864207D19D68D4E90001AD
:10966000D4E90223A847206070BD01310C33E5E73F
:1096700044D20F0050D20F001EF0040F0CBFEFF3C6
:109680000880EFF30980FFF7CBBF00BF70B5EFF3A1
:10969000108672B60C4A9468012384B993600B4B10
:1096A0000B4DD3F8801029401160C3F88050D3F8D7
:1096B000841051604FF0FF32C3F8842023460370BA
:1096C00006B962B670BD00BFE450002000E100E0C2
:1096D000FC06FFBD10B5084B9A685AB150B9EFF3BC
:1096E000108172B6054A1C6814605C68546098600A
:1096F00001B962B610BD00BFE450002000E100E0F7
:109700004FF08053D3F83021082A06D1D3F83431F2
:10971000052B02D8024AD05C70470020704700BF7A
:1097200059D10F0008B54FF08053D3F83021082AE3
:109730004ED14FF080420021C2F80C11C2F8101136
:10974000C2F8381502F54042D3F80414C2F82015C7
:10975000D3F80814C2F82415D3F80C14C2F828154D
:10976000D3F81014C2F82C15D3F81414C2F830151D
:10977000D3F81814C2F83415D3F81C14C2F84015E5
:10978000D3F82014C2F84415D3F82414C2F84815AD
:10979000D3F82814C2F84C15D3F82C14C2F850157D
:1097A000D3F83014C2F85415D3F83414C2F8601545
:1097B000D3F83814C2F86415D3F83C14C2F868150D
:1097C000D3F84014C2F86C15D3F84434C2F870359D
:1097D000FFF796FF18B12B4B2B4AC3F88C26FFF7E7
:1097E0008FFF18B1294BFB22C3F81825FFF788FF1C
:1097F00070B14FF080414FF08053D1F8E42ED3F890
:10980000583222F00F0203F00F031343C1F8E43E75
:10981000FFF776FF20B11E4B4FF40072C3F84026CD
:109820004FF08053D3F83031082B09D14FF08043EB
:10983000D3F80024D20744BF6FF00102C3F800241C
:10984000144AD2F8883043F47003C2F88830BFF36A
:109850004F8FBFF36F8F4FF08053D3F83021082A1A
:109860000ED1D3F83431052B02D80B4AD35C3BB16F
:109870004FF01023D3F808224FF08043C3F8582547
:1098800008BD00BF005000404881030000F00040C8
:109890000090024000ED00E053D10F000369C26860
:1098A00093429CBF81685B18013B981A70472DE971
:1098B000F041D0E902840546A8EB040640689642D0
:1098C00020440F46144406D900F0B6F8BFF35F8F6A
:1098D000EC60BDE8F0813246A4EB080400F0ACF87F
:1098E00068682246B919EFE72DE9F843C5680646CE
:1098F000894617464FF000083369B46870689D4286
:1099000028BF1B19641BBC4203F1FF3328BF3C4630
:109910005B1B9C4228BF1C4649462246284400F057
:109920008BF8B3682544A044A1443F1BAB4208BF59
:109930000025BFF35F8FF560002FDDD14046BDE805
:10994000F8830000144B10B510242246002118465D
:1099500000F00CF90346114A1149012018615861C1
:109960009A61D9614FF400711962002199625962BC
:10997000D8621A630B4A5A639C631964D9635864AA
:10998000BFF35F8F084A12F8010D585401311029B6
:10999000F9D1BFF35F8F10BD005300205FD10F00DE
:1099A00000510020F050002078D10F00F8B5144B82
:1099B000182700FB07751D4407FB00330E46DB6AC2
:1099C000012B14460AD0022B14D023B92846FFF7E6
:1099D00065FF844208D900242046F8BD2846FFF7D9
:1099E0005DFF844228BF0446224631462846FFF7E1
:1099F0005EFFF1E72846BDE8F840FFF775BF00BFFE
:109A000000530020F8B50B4B1B78532B04460D4632
:109A1000164601D0FFF796FFEFF311874FF02001B4
:109A200081F31188324629462046FFF7BFFF87F3AE
:109A30001188F8BD00530020844641EA000313F06A
:109A400003036DD1403A41D351F8043B40F8043B45
:109A500051F8043B40F8043B51F8043B40F8043B08
:109A600051F8043B40F8043B51F8043B40F8043BF8
:109A700051F8043B40F8043B51F8043B40F8043BE8
:109A800051F8043B40F8043B51F8043B40F8043BD8
:109A900051F8043B40F8043B51F8043B40F8043BC8
:109AA00051F8043B40F8043B51F8043B40F8043BB8
:109AB00051F8043B40F8043B51F8043B40F8043BA8
:109AC00051F8043B40F8043B403ABDD2303211D348
:109AD00051F8043B40F8043B51F8043B40F8043B88
:109AE00051F8043B40F8043B51F8043B40F8043B78
:109AF000103AEDD20C3205D351F8043B40F8043B48
:109B0000043AF9D2043208D0D2071CBF11F8013B45
:109B100000F8013B01D30B8803806046704700BF0B
:109B2000082A13D38B078DD010F003038AD0C3F11A
:109B30000403D21ADB071CBF11F8013B00F8013BFC
:109B400080D331F8023B20F8023B7BE7043AD9D3BB
:109B5000013A11F8013B00F8013BF9D20B78037090
:109B60004B7843708B7883706046704770B484077D
:109B700046D0541E002A41D0CDB2034602E0621EF8
:109B8000E4B3144603F8015B9A07F8D1032C2ED9ED
:109B9000CDB245EA05250F2C45EA054519D92646DB
:109BA00003F11002103E0F2E42F8105C42F80C5CDC
:109BB00042F8085C42F8045C02F11002F2D8A4F109
:109BC000100222F00F0204F00F041032032C134491
:109BD0000DD91E462246043A032A46F8045BFAD8F9
:109BE000221F22F003020432134404F003042CB1B8
:109BF000C9B21C4403F8011BA342FBD170BC7047DF
:109C000014460346C2E70000032A70B511D940EAA2
:109C100001039B071FD104460B4602E0043A032AC6
:109C20001DD91946204653F8045B54F8046BAE4224
:109C3000F4D0541EB2B1421E013901E0C3180CD059
:109C400012F801EF11F801CFE645A4EB0203F5D0BD
:109C5000AEEB0C0070BD541EEDE7184670BD2046FB
:109C60001946E6E7104670BD0FB400B583B004AAEC
:109C7000054B52F8041B1868019200F0A1F803B0DC
:109C80005DF804EB04B07047B4BE0F0070B5114B23
:109C90001D68AB789B0719D5044614F8013B1E4696
:109CA00063B10026184629466B68984714F8013BB3
:109CB0000028B8BF4FF0FF36002BF3D16B68294660
:109CC0000A209847002801DB304670BD4FF0FF3670
:109CD000FAE700BFB4BE0F0030B5C3F137048446C5
:109CE0000D461046E2B203F01F04082C5FFA8CFE0A
:109CF00045D0102C51D04FEA5C034FEA9C0C4CEA43
:109D0000857C43EAC57313EB0C034FEA950141EBE5
:109D100055011D0945EA01755B1941EB11111D0A39
:109D200045EA01655B1941EB11211D0C45EA01452E
:109D30005B1941EB11415B1841F100014FEAD30C73
:109D40004CEA417C0CEB8C03AEEB4303DBB2A3F19A
:109D50000A05092B5FFA85FE4FEAD10516D91CF1D9
:109D6000010C45F10005BEF1090F23D996440EF10F
:109D7000300E082C00F801EB5FFA8CFEB9D14FEAE7
:109D8000DC0C4CEA457C0EF00703ED08303300F89C
:109D9000013B5CEA0503A8D130BD0EF00F034FEA8A
:109DA0001C1C092B4CEA057C4FEA1515EED913440F
:109DB000DBB2EBE7263300F8013B5FFA8CFE98E755
:109DC0002DE9F04F837847689B078DB052D50B463D
:109DD000834613F8010B0D46002800F004839246D9
:109DE00000240CE0C0B21D465946B847002804F1D3
:109DF00001043FDB2B4613F8010B00283CD025283B
:109E0000F0D16E78252E05F10205EDD04FF0000956
:109E1000C8464A461F2A41D8A6F12003102B0AD86B
:109E2000DFE803F030090933090909140909092E8B
:109E3000093909093600A6F13003092B00F299808F
:109E400008EB880803EB480842F0200215F8016B84
:109E5000002EDFD1B9F1000FC0F222815946252032
:109E6000B847002806DB30465946B847002804F1B9
:109E70000204BFDA4FF0FF3420460DB0BDE8F08F8A
:109E800042F0020242F00402E0E742F01002DDE795
:109E900042F00102DAE742F00802D7E77F2A40F2F7
:109EA000C582A6F14C032E2B6ED801A151F823F0E8
:109EB0006D9F0F00899F0F00899F0F00899F0F00E2
:109EC000899F0F00899F0F00899F0F00899F0F00B6
:109ED000899F0F00899F0F00899F0F00899F0F00A6
:109EE000899F0F00899F0F00899F0F00899F0F0096
:109EF000899F0F00899F0F00899F0F00899F0F0086
:109F0000899F0F00899F0F00899F0F00899F0F0075
:109F1000899F0F00899F0F00899F0F00899F0F0065
:109F2000E39F0F00899F0F006D9F0F00899F0F0017
:109F3000D59F0F00899F0F00899F0F00899F0F00F9
:109F4000899F0F00899F0F00899F0F00899F0F0035
:109F50004D9E0F00899F0F00899F0F00899F0F0062
:109F6000899F0F00899F0F004D9E0F0042F42072C1
:109F70006CE72A2E00F09D802E2E92D151063FF5DF
:109F80007BAF42F0400261E746F02003B9F1000FD9
:109F9000A3F16501C0F28780022929D9612B27D05E
:109FA000A6F16301122900F2C181DFE811F0B900C6
:109FB0009200BF01BF01BF01BF019200BF01BF01FD
:109FC000BF01BF01BF01F3012301BF01BF010D01AB
:109FD000BF01C100130648BF42F4007242F0800284
:109FE00034E7D60548BF42F4007242F480722DE790
:109FF0000AF1070A2AF0070ABD4B0AF1080A4FF0D6
:10A000000709100741461DD4C1451BD21E462346F1
:10A01000CDF800804446984602E0914508D21446A7
:10A0200059462020B847002804F1FF32F5DA21E72D
:10A0300040460099A046044601340C443346A4EB44
:10A04000080411461E46CDE9003103EB09082346FA
:10A0500034461E4605E014F8010BB8470028FFF609
:10A0600009AF44455946F6D1DDE900313246D31AED
:10A0700026461E44A1EB0903009333443446994617
:10A08000A9EB0403002B59464FF020007FF7B2AE36
:10A09000B847002804F10104F2DA4FF0FF34EBE690
:10A0A00020236FF0440122F0400292B24FF00009E9
:10A0B00072E750065AF8043B01D59946C6E6002BD4
:10A0C000A7BF42F020029846C3F1000842F02802E0
:10A0D000BCE6110600F151815146D00551F8043B10
:10A0E000019100F187811946DB1722F01000002B47
:10A0F0001FFA80FAC0F2688151EA030040F08C81B7
:10A1000012F04003009300F07081B9F1000F40F0AD
:10A11000808122F011021FFA82FA4B464A468DE0F6
:10A120005AF8041B8DF818104FF0010906AB68E7C8
:10A1300022F0100292B24FF00A0E12F0800C5FD0A3
:10A1400012F4007100F0EA800AF1070A2AF0070A07
:10A150005346DAF8041053F8080B019350EA010C47
:10A1600040F0D48022F0160C12F040031FFA8CFA53
:10A17000009303D0B9F1000F00F0F280734606AAF5
:10A18000FFF7AAFD06AA831A009A002A46D10AF010
:10A19000100CBCF1000F50D0002E40F0C4805A1CAF
:10A1A0001AF0080F00F09080A8EB020200925946C6
:10A1B00030200293B8470028FFF65CAE029B002EC9
:10A1C00040F0EC80013458E04A495AF8043B0192CF
:10A1D000002B08BF0B4612F0400F18BF4946184627
:10A1E00008BF4FF0FF31009300F02EF9DDE9003297
:10A1F000814606E742F010024FF0100E78269CE7E9
:10A20000514651F8040B019112F48071A6D012F45A
:10A2100000711ABFC0B2614680B29FE72AF0010206
:10A22000994592B240F3BE80002E40F0A0802AF003
:10A2300011021FFA82FA4A4600E01A4640F206412D
:10A240001AEA010100D001321AF0080C3CD0A8EB48
:10A250000202009289B11AF0020F14BF2B202020B5
:10A260001AF4806F029304F1010418BF2D2059469F
:10A27000B8470028029BFFF6FDAD9945D8BF26469A
:10A280000FDD09EB0406F61A984601E0B44207D048
:10A2900059463020B847002804F10104F6DAE9E510
:10A2A000434606AC04EB0308C24605E01AF8010D6C
:10A2B000B8470028FFF6DEAD54455946F6D146446E
:10A2C000DDE9003A361BD8E61AF0010F36D1904589
:10A2D00040F3A88008EB0401881ACDE90253CDF8B9
:10A2E00000A004920546A246CDF814C006E000BFC7
:10A2F00084D10F007CD10F00AC4257D059462020AA
:10A30000B847002804F10104F6DAB3E522F0060CA0
:10A3100002F040031FFA8CFA00932FE7534653F8DC
:10A32000040B01931AE71A46023239E7782B7FF4BF
:10A3300095ADC6F1780343F0100EFEE6A8EB0201DE
:10A340009045009154DD1944002289460092BCF1E9
:10A35000000F7FF42CAF40F206410AEA010179E7D1
:10A3600022F017021FFA82FA4B464A4666E71AF0B5
:10A37000100C92464A46D7D160E7930543D50AF1BF
:10A38000070A2AF0070A5046DAF8043050F8081B8A
:10A390000190AAE64FF0080E0026CEE60293304662
:10A3A000023464E70AF0100C9246F2E6049ADDF8F3
:10A3B00014C05146521A2244A8EB0202DDF800A054
:10A3C0000092DDE90253C2E7484263EB430102F029
:10A3D00040034AF4806A009306AA0A23FFF77CFC34
:10A3E00006AA831AD0E6044646E519461846F3E75E
:10A3F0009946ACE791054BBF59B219B243F3C0136C
:10A4000043F3C03371E6534653F8041B0193CB1753
:10A410006BE600200146DFE70846194602F04003DC
:10A420000093D9E7A8EB0202009290E7A6F130036F
:10A43000092B3FF69EAD56067FF502AD09EB890963
:10A4400003EB490902E500BF71B1034600EB010CC3
:10A4500001E0634506D01A46013311780029F8D18E
:10A46000101A7047181A7047084670478B18024434
:10A470008B4200D1704713F8010D02F8010DF7E788
:10A48000C3F10803DB0070B501330446002003A5C7
:10A490005B1920C940CAAD1920C4184720C940CA59
:10A4A000754120C420C940CA754120C420C940CA92
:10A4B000754120C420C940CA754120C420C940CA82
:10A4C000754120C420C940CA754120C420C940CA72
:10A4D000754120C4404170BD000000000000000034
:10A4E000C3F10803DB0070B50133002403A500BFEE
:10A4F0005B1920C940CAAD1B20C0184720C940CAFB
:10A50000B54120C020C940CAB54120C020C940CAB9
:10A51000B54120C020C940CAB54120C020C940CAA9
:10A52000B54120C020C940CAB54120C020C940CA99
:10A53000B54120C06441B4FA84F0400970BD00BF49
:10A540002DE9F04F08B4F8CA04B451F8042BA3FB6A
:10A55000028940F8048B4FF0000AE4FB629A4FF046
:10A56000000BE5FB62AB4FF0000CE6FB62BC4FF06A
:10A57000000EE7FB62CE51F8042B4FF00008E3FB1E
:10A58000628940F8048BE4FB629AE5FB62ABE6FB70
:10A5900062BCE7FB62CE51F8042B4FF00008E3FBEE
:10A5A000628940F8048BE4FB629AE5FB62ABE6FB50
:10A5B00062BCE7FB62CE51F8042B4FF00008E3FBCE
:10A5C000628940F8048BE4FB629AE5FB62ABE6FB30
:10A5D00062BCE7FB62CE51F8042B4FF00008E3FBAE
:10A5E000628940F8048BE4FB629AE5FB62ABE6FB10
:10A5F00062BCE7FB62CE40F8049B40F804AB40F835
:10A6000004BB40F804CB40F804EB0CBC052B00F075
:10A610001E810C68A0F11400A1F11401A2F1140232
:10A6200052F804EB4FF0000550F8046BE4FB6E5653
:10A6300052F804EB50F8047BE4FB6E6752F804EB2D
:10A6400050F8048BE4FB6E7852F804EB50F8049B4E
:10A65000E4FB6E8952F804EB50F804ABE4FB6E9A0D
:10A66000A0F1140052F8044B51F804EB4FF0000C29
:10A67000E4FB6EC540F804CB51F804EBE4FB6E56E6
:10A6800040F8045B51F804EBE4FB6E6740F8046BA0
:10A6900051F804EBE4FB6E7840F8047B51F804EBCE
:10A6A000E4FB6E8940F8048B51F804EBE4FB6E9AEE
:10A6B000A0E80006062B00F0CA800C68A0F1180084
:10A6C000A1F11801A2F1180252F804EB4FF00005B5
:10A6D00050F8046BE4FB6E5652F804EB50F8047B20
:10A6E000E4FB6E6752F804EB50F8048BE4FB6E78E1
:10A6F00052F804EB50F8049BE4FB6E8952F804EB2B
:10A7000050F804ABE4FB6E9A52F804EB50F804BB2B
:10A71000E4FB6EABA0F1180052F8044B51F804EBC7
:10A720004FF0000CE4FB6EC540F804CB51F804EB8D
:10A73000E4FB6E5640F8045B51F804EBE4FB6E67F3
:10A7400040F8046B51F804EBE4FB6E7840F8047BAE
:10A7500051F804EBE4FB6E8940F8048B51F804EBEC
:10A76000E4FB6E9A40F8049B51F804EBE4FB6EABFB
:10A77000A0E8000C072B6AD008B40C68A0F11C00FC
:10A78000A1F11C01A2F11C0252F804EB4FF00005EC
:10A7900050F8046BE4FB6E5652F804EB50F8047B5F
:10A7A000E4FB6E6752F804EB50F8048BE4FB6E7820
:10A7B00052F804EB50F8049BE4FB6E8952F804EB6A
:10A7C00050F804ABE4FB6E9A52F804EB50F804BB6B
:10A7D000E4FB6EAB52F804EB50F804CBE4FB6EBC28
:10A7E000A0F11C0052F8044B51F804EB4FF00003A9
:10A7F000E4FB6E3540F8043B51F804EBE4FB6E5685
:10A8000040F8045B51F804EBE4FB6E6740F8046B1E
:10A8100051F804EBE4FB6E7840F8047B51F804EB4C
:10A82000E4FB6E8940F8048B51F804EBE4FB6E9A6C
:10A8300040F8049B51F804EBE4FB6EAB40F804AB2A
:10A8400051F804EBE4FB6EBCA0E8001808BCBDE8BE
:10A85000F08F002310B51C465AB2914200DC10BDA7
:10A8600040F823400133F7E710B500231A465CB2E5
:10A87000A14203DCB2FA82F0400910BD50F8234037
:10A8800001332243F3E74A11012350F8220001F07B
:10A890001F018B40184070474B1E10B55BB2041D62
:10A8A0001A0603D45A1E54F8221071B101335BB258
:10A8B00083B103F18042013A50F82210002231B9ED
:10A8C000013B02EB431210B210BD1346E8E7490802
:10A8D0000132F4E71846F7E710B500235CB2A24254
:10A8E00000DC10BD51F8234040F823400133F5E768
:10A8F00010B5013A52B2130601D5002010BD50F830
:10A90000224051F822309C4205D802F1FF32F2D2A7
:10A910004FF0FF30F2E70120F0E700EB8101002368
:10A92000884200D3704751F8042D43EA52030B606C
:10A93000D307F5E770B59DF910601D463346044610
:10A94000FFF79EFD30B9324621462846FFF7D0FF7B
:10A95000012807D033462A4621462046BDE87040EC
:10A96000FFF7BEBD70BD2DE9F04FB5B004AC9DF949
:10A97000F85001901F4620462B46FFF7E1FD24AB1F
:10A9800029463846CDE90234FFF786FFC0EB85142F
:10A9900024B2002C2146B8BF04F11F01634203F02A
:10A9A0001F0341F3471104F01F0614A858BF5E426D
:10A9B000FFF74FFF002E4FEA81002DDD14AB002280
:10A9C0001844C6F1200E1346AB421AD314AB03EB66
:10A9D000850300936F1E34AB4FEA45084FEA8509A3
:10A9E000012603EB8707002C53DA34AB03EB860612
:10A9F000019856F8C81C2A46FFF76EFF35B0BDE82F
:10AA0000F08F57F823C00CFA06F10A4340F8042BE4
:10AA100001332CFA0EF2D7E714AB2A463946184414
:10AA2000FFF75AFFD2E75AF8C83C53F8202034AB5E
:10AA300003EB80030CF1010C53F8803C0B44D31A58
:10AA400034BF4FF0010B4FF0000B9A425EF8C82C58
:10AA500042F8203018BF59464FFA8CF04045E2DBEF
:10AA6000731A5E42294614A85E41FFF756FF09F1AA
:10AA7000D0036B44009853F8802C57F8803C29464B
:10AA800043EAC273013C47F8803C24B2FFF745FF1C
:10AA9000A9E734AB4FF0000CC6F1010E614603EBA1
:10AAA000860A03EB8E0ED7E730B51C4691B00546FB
:10AAB00093F900306846FFF743FDD4F8AC3069469F
:10AAC0002846984711B030BD13460A46FFF7ECBF41
:10AAD000F0B5082289B0FFF7FFFECB6A03930B6B3A
